:020000040800F2
:1000000000280020D9190008691900086F19000894
:10001000751900087B19000881190008000000000C
:100020000000000000000000000000008719000828
:1000300093190008000000009F190008AB19000880
:10004000211A0008211A0008211A0008211A0008A4
:10005000211A0008211A0008211A0008211A000894
:10006000211A0008211A0008211A0008211A000884
:10007000211A0008211A0008211A0008211A000874
:10008000211A0008211A0008211A0008211A000864
:10009000211A0008211A0008211A0008211A000854
:1000A000211A0008211A0008211A0008211A000844
:1000B000B9190008211A000800000000211A0008E0
:1000C000211A00080000000000000000211A0008AA
:1000D00000000000211A0008211A0008000000009A
:1000E000211A0008211A0008211A00080000000047
:1000F0000000000000000000000000000000000000
:0C01000000000000000000005FF808F1A3
:10010C0010B5054C237833B9044B13B10448AFF345
:10011C0000800123237010BD580000200000000057
:10012C005030000808B5034B1BB103490348AFF32B
:10013C00008008BD000000005C000020503000086A
:10014C0080B483B000AF7860094A7B6852F82330E2
:10015C00012B06D1064A7B68002142F823100123AB
:10016C0000E0002318460C37BD4680BC704700BF2A
:10017C007400002080B483B000AF7860044A7B68C0
:10018C00012142F8231000BF0C37BD4680BC7047DC
:10019C007400002080B582B000AF00237B60A1E02A
:1001AC00554A7B6852F8232054497B6841F8232038
:1001BC00534A7B6852F823204F497B6841F823202F
:1001CC007B68002B0BD14FF400514E4801F00EFF11
:1001DC00034619464A4A7B6842F823101CE07B68A8
:1001EC00012B0BD14FF48041464801F0FFFE034632
:1001FC001946434A7B6842F823100DE07B68022BBA
:10020C000AD14FF400413F4801F0F0FE0346194675
:10021C003B4A7B6842F82310374A7B6852F823200C
:10022C0036497B6851F823309A4251D1324A7B6867
:10023C0052F8232032497B6851F823309A4247D137
:10024C00314A7B6852F823202D497B6851F82330C2
:10025C009A4223D02A4A7B6852F823202A497B6889
:10026C0041F82320264A7B6852F82330002B35D1E5
:10027C007868FFF77FFF254A7B6852F82330002B04
:10028C0006D1234A7B684FF4FA6142F8231025E02B
:10029C001F4A7B68FA2142F823101FE01C4A7B6836
:1002AC0052F823305A1E1A497B6841F82320184A09
:1002BC007B6852F82330002B10D1134A7B68012144
:1002CC0042F82310114A7B68012142F8231005E003
:1002DC000E4A7B68002142F8231000E000BF7B68C7
:1002EC0001337B607B68022B7FF75AAF00BF00BFE6
:1002FC000837BD4680BD00BF0C0000200000002068
:10030C0018000020000C0140240000208000002078
:10031C008C00002080B582B000AF78607B68092B20
:10032C0000F2808101A252F823F000BF61030008A3
:10033C00A9030008F103000839040008810400082F
:10034C00C90400081105000859050008A10500089A
:10035C00E905000800220121C64801F05EFE0022DA
:10036C000221C44801F059FE00220421C14801F0C9
:10037C0054FE00220821BF4801F04FFE002210213C
:10038C00BC4801F04AFE00222021BA4801F045FE8B
:10039C0001224021B74801F040FE67E10122012112
:1003AC00B44801F03AFE00220221B24801F035FEB9
:1003BC0000220421AF4801F030FE01220821AD4893
:1003CC0001F02BFE01221021AA4801F026FE012289
:1003DC002021A84801F021FE01224021A54801F06E
:1003EC001CFE43E100220121A24801F016FE00226E
:1003FC000221A04801F011FE012204219D4801F0C8
:10040C000CFE002208219B4801F007FE002210215F
:10041C00984801F002FE01222021964801F0FDFDD2
:10042C0000224021934801F0F8FD1FE10022012138
:10043C00904801F0F2FD002202218E4801F0EDFD02
:10044C00002204218B4801F0E8FD00220821894894
:10045C0001F0E3FD01221021864801F0DEFD0122AE
:10046C002021844801F0D9FD00224021814801F06F
:10047C00D4FDFBE0012201217E4801F0CEFD0022DB
:10048C0002217C4801F0C9FD00220421794801F0C9
:10049C00C4FD01220821774801F0BFFD0122102183
:1004AC00744801F0BAFD00222021724801F0B5FD1C
:1004BC00002240216F4801F0B0FDD7E0002201215D
:1004CC006C4801F0AAFD012202216A4801F0A5FD49
:1004DC0000220421674801F0A0FD00220821654894
:1004EC0001F09BFD01221021624801F096FD0022D3
:1004FC002021604801F091FD002240215D4801F06F
:10050C008CFDB3E0002201215A4801F086FD012246
:10051C000221584801F081FD00220421554801F0C8
:10052C007CFD00220821534801F077FD00221021A8
:10053C00504801F072FD002220214E4801F06DFD63
:10054C00002240214B4801F068FD8FE00022012180
:10055C00484801F062FD00220221464801F05DFD91
:10056C0000220421434801F058FD01220821414892
:10057C0001F053FD012210213E4801F04EFD0122F5
:10058C0020213C4801F049FD01224021394801F06D
:10059C0044FD6BE000220121364801F03EFD0022B3
:1005AC000221344801F039FD00220421314801F0C8
:1005BC0034FD002208212F4801F02FFD00221021CC
:1005CC002C4801F02AFD002220212A4801F025FDAB
:1005DC0000224021274801F020FD47E000220121A4
:1005EC00244801F01AFD00220221224801F015FDD9
:1005FC00002204211F4801F010FD002208211D4893
:10060C0001F00BFD012210211A4801F006FD002219
:10061C002021184801F001FD00224021154801F06D
:10062C00FCFC23E001220121124801F0F6FC01221E
:10063C000221104801F0F1FC012204210D4801F0C7
:10064C00ECFC012208210B4801F0E7FC01221021EF
:10065C00084801F0E2FC01222021064801F0DDFCF3
:10066C0001224021034801F0D8FC00BF00BF08372D
:10067C00BD4680BD000C014080B582B000AF7860F3
:10068C007B68032B7AD801A252F823F0A906000844
:10069C00E106000819070008510700083A4B1B68CF
:1006AC001846FFF737FE00224021384801F0B5FC10
:1006BC0001228021354801F0B0FC01224FF48071F9
:1006CC00324801F0AAFC01224FF400712F4801F0CE
:1006DC00A4FC54E02C4B5B681846FFF71BFE012270
:1006EC0040212A4801F099FC00228021274801F082
:1006FC0094FC01224FF48071244801F08EFC0122FD
:10070C004FF40071214801F088FC38E01E4B9B68C7
:10071C001846FFF7FFFD012240211C4801F07DFC2B
:10072C0001228021194801F078FC00224FF48071DD
:10073C00164801F072FC01224FF40071134801F0CD
:10074C006CFC1CE0104BDB681846FFF7E3FD012244
:10075C0040210E4801F061FC012280210B4801F080
:10076C005CFC01224FF48071084801F056FC002219
:10077C004FF40071054801F050FC00E000BF00BFD1
:10078C000837BD4680BD00BFC000002000080140F6
:10079C0080B400AF954B1A68954B1B689A421FDCCE
:1007AC00934B1A68914B1B68D31A924A82FB031223
:1007BC009210DB17D31A904A13608D4B1A688B4B2F
:1007CC001B68D11A8B4B83FB01239A10CB17D21ABF
:1007DC0013469B0013445B00CA1A874B5A6059E0BE
:1007EC00834B1A68854B1B681A44804B1B689A42D2
:1007FC0025DB7F4B1A68814B1B681A447B4B1B68AB
:10080C00D31A7C4A82FB03129210DB17D31A7A4A52
:10081C001360774B1A68794B1B681A44734B1B682F
:10082C00D11A744B83FB01239A10CB17D21A13469F
:10083C009B0013445B00CA1A6F4B5A602AE06C4B46
:10084C001A686E4B1B681A446D4B1B681A44674B35
:10085C001B68D31A674A82FB03129210DB17D31A58
:10086C00654A1360624B1A68644B1B681A44644BEC
:10087C001B681A445D4B1B68D11A5E4B83FB01232A
:10088C009A10CB17D21A13469B0013445B00CA1A5A
:10089C00594B5A60554B1B680133544A1360544BE7
:1008AC001A68574B1B681A44544B1B681A444F4B1D
:1008BC001B689A4202DA4D4B01221A60514B1A689E
:1008CC004E4B1B689A421FDC4C4B1A684D4B1B68F5
:1008DC00D31A484A82FB03129210DB17D31A464AEA
:1008EC009360464B1A68474B1B68D11A414B83FBEC
:1008FC0001239A10CB17D21A13469B0013445B00AA
:10090C00CA1A3D4BDA6059E03D4B1A683B4B1B68E9
:10091C001A443C4B1B689A4225DB394B1A68374BFF
:10092C001B681A44374B1B68D31A324A82FB0312DA
:10093C009210DB17D31A304A9360314B1A682F4B45
:10094C001B681A442F4B1B68D11A2A4B83FB0123BB
:10095C009A10CB17D21A13469B0013445B00CA1A89
:10096C00254BDA602AE0224B1A68244B1B681A4488
:10097C00234B1B681A44234B1B68D31A1D4A82FB5A
:10098C0003129210DB17D31A1B4A9360184B1A6888
:10099C001A4B1B681A441A4B1B681A44194B1B68D8
:1009AC00D11A144B83FB01239A10CB17D21A13467E
:1009BC009B0013445B00CA1A0F4BDA60114B1B6887
:1009CC000133104A13600A4B1A680D4B1B681A440A
:1009DC000A4B1B681A440B4B1B689A4202DA094BF0
:1009EC0001221A6000BFBD4680BC70473000002059
:1009FC003800002067666666C000002040000020BA
:100A0C003C0000203400002080B400AF114B0022C9
:100A1C001A60104B02225A600F4B1B680F4A82FB64
:100A2C0003129210DB17D31A0A4A93600A4B196807
:100A3C000A4B83FB01239A10CB17D21A13469B0047
:100A4C0013445B00CA1A034BDA6000BFBD4680BC7E
:100A5C00704700BFC0000020380000206766666643
:100A6C0080B400AF114B00221A60104B03225A6065
:100A7C000F4B1B680F4A82FB03129210DB17D31A21
:100A8C000A4A93600A4B19680A4B83FB01239A109C
:100A9C00CB17D21A13469B0013445B00CA1A034BA4
:100AAC00DA6000BFBD4680BC704700BFC0000020AC
:100ABC003C0000206766666680B400AF114B0022D4
:100ACC001A60104B04225A600F4B1B680F4A82FBB2
:100ADC0003129210DB17D31A0A4A93600A4B196857
:100AEC000A4B83FB01239A10CB17D21A13469B0097
:100AFC0013445B00CA1A034BDA6000BFBD4680BCCE
:100B0C00704700BFC000002040000020676666668A
:100B1C0080B500AF954B1B68013B0D2B00F2F881A3
:100B2C0001A252F823F000BF6D0B0008750B0008F2
:100B3C001D0F00081D0F00081D0F00081D0F0008D9
:100B4C001D0F00081D0F00081D0F00081D0F0008C9
:100B5C00EF0B0008B50C00089D0D00085D0E000899
:100B6C00824B02221A60DAE100224FF48061804845
:100B7C0001F053FA01224FF480517D4801F04DFAF7
:100B8C0001224FF400617A4801F047FA01224FF438
:100B9C000051774801F041FA00224FF400417448AB
:100BAC0001F03BFA01224FF48041714801F035FA13
:100BBC00FFF7EEFD6F4B1B684FF47A7202FB03F3E9
:100BCC00184600F073FD4FF47A7000F089FDFA209E
:100BDC0000F0A0FD032000F027FE644B0B221A60EE
:100BEC009DE100224FF48061614801F016FA012268
:100BFC004FF480515E4801F010FA01224FF400616D
:100C0C005B4801F00AFA01224FF40051584801F0F8
:100C1C0004FA00224FF40041554801F0FEF901227C
:100C2C004FF48041524801F0F8F9534B1B68012BEB
:100C3C000BD14E4B0C221A60504B1B684FF47A723E
:100C4C0002FB03F3184600F031FD4D4B1B68012BE2
:100C5C0005D1FFF79DFD4FF47A7000F041FD494B33
:100C6C001B68012B13D1484B1B685A1C46490A6060
:100C7C001846FFF701FD444B1A68444B1B689A4217
:100C8C0002DB414B00221A60FA2000F043FD0020E9
:100C9C00FFF756FA0346012B02D1344B03221A609C
:100CAC00032000F0C1FD3AE100224FF4806130488E
:100CBC0001F0B3F901224FF480512D4801F0ADF948
:100CCC0001224FF400612A4801F0A7F901224FF4E8
:100CDC000051274801F0A1F901224FF400412448AA
:100CEC0001F09BF900224FF48041214801F095F965
:100CFC00214B1B68012B0BD11C4B0D221A601D4B79
:100D0C001B684FF47A7202FB03F3184600F0CEFC1A
:100D1C001B4B1B68012B05D1FFF73AFD4FF47A7082
:100D2C0000F0DEFC174B1B68012B13D1164B1B6814
:100D3C005A1C15490A601846FFF79EFC124B1A689C
:100D4C00124B1B689A4202DB0F4B00221A60FA20EE
:100D5C0000F0E0FC0020FFF7F3F90346012B40F014
:100D6C00D980024B03221A60D4E000BF9C00002003
:100D7C000008014040000020A40000203C0000209E
:100D8C00AC000020B400002098000020440000209B
:100D9C0001224FF48061634801F03FF900224FF4C7
:100DAC008051604801F039F901224FF400615D482F
:100DBC0001F033F900224FF400515A4801F02DF99B
:100DCC0001224FF40041574801F027F901224FF45A
:100DDC008041544801F021F9534B1B68012B0BD176
:100DEC00524B0E221A60524B1B684FF47A7202FB64
:100DFC0003F3184600F05AFC4E4B1B68012B05D12F
:100E0C00FFF7C6FC4FF47A7000F06AFC4A4B1B6883
:100E1C00012B13D1494B1B685A1C48490A601846D0
:100E2C00FFF72AFC454B1A68454B1B689A4202DBBC
:100E3C00424B00221A60FA2000F06CFC0020FFF7F5
:100E4C007FF90346012B67D1384B03221A6063E00C
:100E5C0001224FF48061334801F0DFF801224FF496
:100E6C008051304801F0D9F800224FF400612D4830
:100E7C0001F0D3F800224FF400512A4801F0CDF8CC
:100E8C0001224FF40041274801F0C7F801224FF42A
:100E9C008041244801F0C1F8234B1B68012B0BD176
:100EAC00224B0B221A60274B1B684FF47A7202FB01
:100EBC0003F3184600F0FAFB1E4B1B68012B05D1FF
:100ECC00FFF766FC4FF47A7000F00AFC1A4B1B68B3
:100EDC00012B13D1194B1B685A1C18490A60184670
:100EEC00FFF7CAFB154B1A68154B1B689A4202DBBD
:100EFC00124B00221A60FA2000F00CFC0020FFF7C5
:100F0C001FF90346012B09D1084B03221A6005E097
:100F1C0000BF04E000BF02E000BF00E000BF00BF64
:100F2C0080BD00BF00080140A40000209C000020F0
:100F3C003C000020AC000020B400002098000020F1
:100F4C00440000204000002080B500AFBE4B1B6861
:100F5C00033B272B00F25F8201A252F823F000BF63
:100F6C000D1000085F110008DF12000823140008A0
:100F7C002314000823140008231400082314000869
:100F8C002314000823140008231400082314000859
:100F9C002314000823140008231400082314000849
:100FAC0023140008231400082314000877100008E9
:100FBC002314000823140008231400082314000829
:100FCC002314000823140008231400082314000819
:100FDC0023140008C9110008231400082314000866
:100FEC0023140008231400082314000823140008F9
:100FFC0023140008231400082314000849130008C4
:10100C00002000F011FC012000F00EFCFA2000F092
:10101C0081FB4FF4FA7000F097FB00224FF48061D3
:10102C008A4800F0FAFF01224FF48051874800F003
:10103C00F4FF01224FF40061844800F0EEFF00221F
:10104C004FF40051814800F0E8FF01224FF40041B9
:10105C007E4800F0E2FF01224FF480417B4800F013
:10106C00DCFF794B16221A60DCE1794B1B68012BF3
:10107C0015D1FFF7C9FC774B1B685A1C75490A60E0
:10108C001846FFF7F9FA734B1A68734B1B689A42B0
:10109C0002DB704B00221A60FA2000F03BFB6F4B16
:1010AC001B68012B07D12021684800F0CEFF4FF4BC
:1010BC00FA7000F049FB0020FFF742F80346012BC1
:1010CC0002D1614B04221A600120FFF739F8034664
:1010DC00012B0ED1624B1B68622B05DC604B1B682D
:1010EC0001335F4A136004E05E4B1B6801335C4ABA
:1010FC0013600220FFF724F80346012B40F08D818A
:10110C00574B1A68574B1B689A4204DC554B1B68AB
:10111C000133534A1360524B1A68524B1B68D31A53
:10112C00514A1360032000F07FFB4F4B1B684FF4B8
:10113C007A7202FB03F3184600F0B8FA4FF47A7097
:10114C0000F0CEFAFA2000F0E5FA3F4B0B221A60C1
:10115C0063E1002000F068FB012000F065FBFA2041
:10116C0000F0D8FA4FF4FA7000F0EEFA01224FF4C6
:10117C008061364800F051FF01224FF48051334812
:10118C0000F04BFF00224FF40061304800F045FFA7
:10119C0001224FF400512D4800F03FFF01224FF483
:1011AC0000412A4800F039FF00224FF480412748C3
:1011BC0000F033FF244B20221A6033E1244B1B68D0
:1011CC00012B15D1234B1B685A1C22490A60184667
:1011DC00FFF752FAFFF744FC1E4B1A681E4B1B68B4
:1011EC009A4202DB1B4B00221A60FA2000F092FAA2
:1011FC001A4B1B68012B07D12021144800F025FF46
:10120C004FF4FA7000F0A0FA0020FEF799FF0346A5
:10121C00012B02D10C4B05221A600120FEF790FF26
:10122C000346012B25D10F4B1B68622B1EDC0C4B8C
:10123C001B685A1E0B4B1B689A4217DD094B1B6827
:10124C000133084A136014E09C00002000080140A0
:10125C00B40000209800002044000020BC000020B6
:10126C00380000203C000020400000206E4B012282
:10127C001A600220FEF764FF0346012B40F0CF807A
:10128C006A4B1A68684B1B689A4204DC664B1B68F5
:10129C000133664A1360654B1A68634B1B68D31A9B
:1012AC00634A1360032000F0BFFA614B1B684FF4D4
:1012BC007A7202FB03F3184600F0F8F94FF47A70D7
:1012CC0000F00EFAFA2000F025FA5A4B0B221A60A5
:1012DC00A5E0002000F0A8FA012000F0A5FAFA2001
:1012EC0000F018FA4FF4FA7000F02EFA01224FF4C5
:1012FC008061514800F091FE00224FF480514E481D
:10130C0000F08BFE01224FF400614B4800F085FE8B
:10131C0001224FF40051484800F07FFE00224FF4A8
:10132C000041454800F079FE01224FF480414248CB
:10133C0000F073FE3F4B2A221A6073E03F4B1B6890
:10134C00012B15D13E4B1B685A1C3D490A601846AF
:10135C00FFF792F9FFF7B0FB394B1A68394B1B6852
:10136C009A4202DB364B00221A60FA2000F0D2F9C6
:10137C00354B1B68012B07D120212F4800F065FE4F
:10138C004FF4FA7000F0E0F90020FEF7D9FE0346A6
:10139C00012B02D1274B02221A600120FEF7D0FE4E
:1013AC000346012B13D1224B1B68622B0CDC1F4B09
:1013BC001B685A1E1E4B1B689A4205DD1C4B1B6892
:1013CC0001331B4A136002E0194B01221A60022000
:1013DC00FEF7B6FE0346012B23D1154B1A68124BB0
:1013EC001B681344114A1360032000F01DFA104BC4
:1013FC001B684FF47A7202FB03F3184600F056F99F
:10140C004FF47A7000F06CF9FA2000F083F9094B74
:10141C000B221A6005E000BF04E000BF02E000BF31
:10142C0000E000BF00BF80BD3C0000203800002061
:10143C00400000209C00002000080140B400002067
:10144C009800002044000020BC00002080B500AFB4
:10145C0000F0E2FA00F014F800F04EF800F098F802
:10146C00054801F037FA054B01221A60FFF750FBD3
:10147C00FFF76AFDFAE700BFD00000209C000020B7
:10148C0080B590B000AF07F1180328220021184650
:10149C0001F0D0FD3B1D00221A605A609A60DA60A0
:1014AC001A610223BB610123BB621023FB62002380
:1014BC007B6307F11803184600F0E0FD0346002B90
:1014CC0001D000F0EDF80F237B600023BB600023FC
:1014DC00FB6000233B6100237B613B1D0021184610
:1014EC0001F04CF80346002B01D000F0D9F800BFF6
:1014FC004037BD4680BD000080B586B000AF07F117
:10150C00080300221A605A609A60DA603B46002297
:10151C001A605A601D4B4FF080421A601B4B41F60B
:10152C003F725A60194B00229A60184B0922DA60FC
:10153C00164B00221A61154B00229A61134801F0D8
:10154C0079F90346002B01D000F0AAF84FF4805330
:10155C00BB6007F1080319460C4801F0F7FA034683
:10156C00002B01D000F09CF800233B6000237B6033
:10157C003B461946054801F0CFFC0346002B01D031
:10158C0000F08EF800BF1837BD4680BDD00000209B
:10159C0080B588B000AF07F1100300221A605A60C2
:1015AC009A60DA60344B9B69334A43F010039361C1
:1015BC00314B9B6903F01003FB60FB682E4B9B695E
:1015CC002D4A43F0040393612B4B9B6903F00403F6
:1015DC00BB60BB68284B9B69274A43F008039361A7
:1015EC00254B9B6903F008037B607B6800224FF658
:1015FC00E071224800F011FD00227F21204800F00C
:10160C000CFD4FF400533B6100237B610123BB6154
:10161C0007F1100319461B4800F06EFB4FF6E07300
:10162C003B6101237B610023BB610223FB6107F15A
:10163C0010031946114800F05FFB7F233B61012327
:10164C007B610023BB610223FB6107F11003194688
:10165C000B4800F051FB4FF460433B6100237B616E
:10166C000123BB6107F110031946054800F044FB48
:10167C0000BF2037BD4680BD00100240000801406D
:10168C00000C01400010014080B582B000AF7860C2
:10169C0000F074F8FEF77EFD00BF0837BD4680BD34
:1016AC0080B400AF72B600BFFEE7000080B483B018
:1016BC0000AF7860074B1B687A6892FBF3F3064A1D
:1016CC001360064B00221A6000BF0C37BD4680BC6D
:1016DC00704700BF48000020A0000020A40000209C
:1016EC0080B483B000AF7860074B1B687A6892FBBC
:1016FC00F3F3064A1360064B00221A6000BF0C3746
:10170C00BD4680BC704700BF48000020A8000020E8
:10171C00AC00002080B483B000AF7860074B1B682E
:10172C007A6892FBF3F3064A1360064B00221A60A8
:10173C0000BF0C37BD4680BC704700BF480000207E
:10174C00B0000020B400002080B483B000AF7860FB
:10175C00074B1B687A6892FBF3F3064A1360064B3F
:10176C0000221A6000BF0C37BD4680BC704700BF1A
:10177C0048000020B8000020BC00002080B400AF5E
:10178C00214B1B68002B0BDD1F4B1B68013B1E4ABA
:10179C0013601D4B1B68002B02D11C4B01221A60DD
:1017AC001B4B1B68002B0BDD194B1B68013B184AAC
:1017BC001360174B1B68002B02D1164B01221A60C9
:1017CC00154B1B68002B0BDD134B1B68013B124A9E
:1017DC001360114B1B68002B02D1104B01221A60B5
:1017EC000F4B1B68002B0BDD0D4B1B68013B0C4A90
:1017FC0013600B4B1B68002B02D10A4B01221A60A1
:10180C0000BFBD4680BC7047A0000020A400002093
:10181C00A8000020AC000020B0000020B400002084
:10182C00B8000020BC00002080B483B000AF78600A
:10183C007B68032B26D801A252F823F05918000814
:10184C00671800087518000883180008104B002250
:10185C001A60104B00221A6015E00F4B00221A6020
:10186C000E4B00221A600EE00D4B00221A600D4B3D
:10187C0000221A6007E00C4B00221A600B4B00226E
:10188C001A6000E000BF00BF0C37BD4680BC70473B
:10189C00A0000020A4000020A8000020AC00002024
:1018AC00B0000020B4000020B8000020BC000020D4
:1018BC0080B485B000AF154B9B69144A43F001030B
:1018CC009361124B9B6903F00103BB60BB680F4B28
:1018DC00DB690E4A43F08053D3610C4BDB6903F098
:1018EC0080537B607B680A4B5B68FB60FB6823F072
:1018FC00E063FB60FB6843F08063FB60044AFB68B9
:10190C00536000BF1437BD4680BC704700100240C6
:10191C000000014080B584B000AF78607B681B6824
:10192C00B3F1804F13D10C4BDB690B4A43F001032D
:10193C00D361094BDB6903F00103FB60FB680022F8
:10194C0000211C2000F0A1F91C2000F0BAF900BF06
:10195C001037BD4680BD00BF0010024080B400AF00
:10196C00FEE780B400AFFEE780B400AFFEE780B4C2
:10197C0000AFFEE780B400AFFEE780B400AF00BF5D
:10198C00BD4680BC704780B400AF00BFBD4680BC74
:10199C00704780B400AF00BFBD4680BC704780B5B7
:1019AC0000AF00F07FF800BF80BD000080B500AF35
:1019BC00024800F0DBFF00BF80BD00BFD00000205C
:1019CC0080B400AF00BFBD4680BC7047FFF7F8FF86
:1019DC000B480C490C4A002302E0D458C450043381
:1019EC00C4188C42F9D3094A094C002301E0136056
:1019FC000432A242FBD301F0F9FAFFF727FD70473E
:101A0C0000000020580000209430000858000020EE
:101A1C001C010020FEE7000080B500AF084B1B68DE
:101A2C00074A43F010031360032000F023F90F2042
:101A3C0000F008F8FFF73CFF0023184680BD00BFFC
:101A4C000020024080B582B000AF7860124B1A685B
:101A5C00124B1B7819464FF47A73B3FBF1F3B2FBBC
:101A6C00F3F3184600F03BF90346002B01D0012399
:101A7C000EE07B680F2B0AD8002279684FF0FF30FC
:101A8C0000F003F9064A7B681360002300E0012391
:101A9C0018460837BD4680BD4C000020540000207D
:101AAC005000002080B400AF054B1B781A46054B44
:101ABC001B681344034A136000BFBD4680BC7047CB
:101ACC00540000201801002080B400AF024B1B68AA
:101ADC001846BD4680BC70471801002080B485B004
:101AEC0000AF78607B6803F00703FB600C4BDB688E
:101AFC00BB60BA684FF6FF031340BB60FB681A0269
:101B0C00BB68134343F0BF6343F40033BB60044A28
:101B1C00BB68D36000BF1437BD4680BC704700BFA4
:101B2C0000ED00E080B400AF044BDB681B0A03F04F
:101B3C0007031846BD4680BC704700BF00ED00E0AF
:101B4C0080B483B000AF0346FB7197F90730002BCC
:101B5C000BDBFB7903F01F02064997F907305B0991
:101B6C00012000FA02F241F8232000BF0C37BD46D9
:101B7C0080BC704700E100E080B483B000AF034646
:101B8C003960FB7197F90730002B0ADB3B68DAB23E
:101B9C000C4997F907301201D2B20B4483F8002399
:101BAC000AE03B68DAB20849FB7903F00F03043B07
:101BBC001201D2B20B441A7600BF0C37BD4680BC62
:101BCC00704700BF00E100E000ED00E080B489B098
:101BDC0000AFF860B9607A60FB6803F00703FB6143
:101BEC00FB69C3F10703042B28BF0423BB61FB690A
:101BFC000433062B02D9FB69033B00E000237B6115
:101C0C004FF0FF32BB6902FA03F3DA43BB681A40A8
:101C1C007B699A404FF0FF317B6901FA03F3D9439A
:101C2C007B680B40134318462437BD4680BC704775
:101C3C0080B582B000AF78607B68013BB3F1807FE8
:101C4C0001D301230FE00A4A7B68013B53600F214B
:101C5C004FF0FF30FFF790FF054B00229A60044BCA
:101C6C0007221A60002318460837BD4680BD00BF06
:101C7C0010E000E080B582B000AF78607868FFF7C4
:101C8C002DFF00BF0837BD4680BD80B586B000AFC4
:101C9C000346B9607A60FB7300237B61FFF742FF58
:101CAC0078617A68B9687869FFF790FF024697F90E
:101CBC000F3011461846FFF75FFF00BF1837BD46BF
:101CCC0080BD80B582B000AF0346FB7197F9073039
:101CDC001846FFF735FF00BF0837BD4680BD80B5FD
:101CEC0082B000AF78607868FFF7A2FF0346184611
:101CFC000837BD4680BD000080B48BB000AF786063
:101D0C00396000237B6200233B6248E101227B6A3D
:101D1C0002FA03F3FB613B681B68FA691340BB6171
:101D2C00BA69FB699A4240F037813B685B68A34A09
:101D3C0093425ED0A14A934275D8A14A934258D09F
:101D4C009F4A93426FD89F4A934252D09D4A9342E6
:101D5C0069D89D4A93424CD09B4A934263D89B4A84
:101D6C00934246D0994A93425DD8122B2AD8122B13
:101D7C0059D801A252F823F0FF1D0008D91D000804
:101D8C00EB1D00082D1E0008331E0008331E000832
:101D9C00331E0008331E0008331E0008331E0008D3
:101DAC00331E0008331E0008331E0008331E0008C3
:101DBC00331E0008331E0008331E0008E11D000806
:101DCC00F51D0008824A934213D02CE03B68DB6877
:101DDC003B6229E03B68DB6804333B6224E03B68F0
:101DEC00DB6808333B621FE03B68DB680C333B620B
:101DFC001AE03B689B68002B02D104233B6213E082
:101E0C003B689B68012B05D108233B627B68FA6910
:101E1C001A6109E008233B627B68FA695A6103E0A6
:101E2C0000233B6200E000BFBB69FF2B01D87B683D
:101E3C0001E07B6804337B61BB69FF2B02D87B6AB2
:101E4C009B0002E07B6A083B9B003B617B691A6844
:101E5C000F213B6901FA03F3DB431A40396A3B69F2
:101E6C0001FA03F31A437B691A603B685B6803F061
:101E7C008053002B00F09080564B9B69554A43F0E1
:101E8C0001039361534B9B6903F00103BB60BB6877
:101E9C00514A7B6A9B08023352F82330FB607B6A01
:101EAC0003F003039B000F2202FA03F3DB43FA68EF
:101EBC001340FB607B68494A93420DD07B68484ACB
:101ECC00934207D07B68474A934201D1022304E036
:101EDC00032302E0012300E000237A6A02F00302EC
:101EEC0092009340FA681343FB603B497B6A9B0862
:101EFC000233FA6841F823203B685B6803F48013D3
:101F0C00002B06D0384B9A683749BB6913438B605A
:101F1C0006E0354B9A68BB69DB43334913408B6051
:101F2C003B685B6803F40013002B06D02E4BDA6879
:101F3C002D49BB691343CB6006E02B4BDA68BB69B8
:101F4C00DB4329491340CB603B685B6803F40033E7
:101F5C00002B06D0244B5A682349BB6913434B60B2
:101F6C0006E0214B5A68BB69DB431F4913404B60A9
:101F7C003B685B6803F48033002B06D01A4B1A685D
:101F8C001949BB6913430B6006E0174B1A68BB6910
:101F9C00DB43154913400B607B6A01337B623B6862
:101FAC001A687B6A22FA03F3002B7FF4AFAE00BFF2
:101FBC0000BF2C37BD4680BC704700BF00003210FC
:101FCC00000031100000221000002110000012103F
:101FDC0000001110001002400000014000080140F8
:101FEC00000C0140001001400004014080B485B099
:101FFC0000AF78600B467B807B689A687B881340C7
:10200C00002B02D00123FB7301E00023FB73FB7B4D
:10201C0018461437BD4680BC704780B483B000AFFF
:10202C0078600B467B8013467B707B78002B03D04B
:10203C007A887B681A6103E07B881A047B681A61D2
:10204C0000BF0C37BD4680BC704780B485B000AF74
:10205C0078600B467B807B68DB68FB607A88FB686A
:10206C0013401A04FB68D9437B880B401A437B68E6
:10207C001A6100BF1437BD4680BC704780B586B06E
:10208C0000AF78607B68002B01D101236CE27B6888
:10209C001B6803F00103002B00F08780924B5B68F8
:1020AC0003F00C03042B0CD08F4B5B6803F00C0378
:1020BC00082B12D18C4B5B6803F48033B3F5803F53
:1020CC000BD1894B1B6803F40033002B6CD07B685D
:1020DC005B68002B68D1012346E27B685B68B3F533
:1020EC00803F06D1804B1B687F4A43F480331360DA
:1020FC002EE07B685B68002B0CD17B4B1B687A4A0B
:10210C0023F480331360784B1B68774A23F48023C5
:10211C0013601DE07B685B68B3F5A02F0CD1724B8C
:10212C001B68714A43F4802313606F4B1B686E4A23
:10213C0043F4803313600BE06B4B1B686A4A23F447
:10214C0080331360684B1B68674A23F48023136049
:10215C007B685B68002B13D0FFF7B6FC386108E096
:10216C00FFF7B2FC02463B69D31A642B01D9032357
:10217C00FAE15D4B1B6803F40033002BF0D014E044
:10218C00FFF7A2FC386108E0FFF79EFC02463B69B2
:10219C00D31A642B01D90323E6E1534B1B6803F4D8
:1021AC000033002BF0D100E000BF7B681B6803F00C
:1021BC000203002B63D04C4B5B6803F00C03002B29
:1021CC000BD0494B5B6803F00C03082B1CD1464B1E
:1021DC005B6803F48033002B16D1434B1B6803F070
:1021EC000203002B05D07B681B69012B01D0012356
:1021FC00BAE13D4B1B6823F0F8027B685B69DB009E
:10220C00394913430B603AE07B681B69002B20D0E3
:10221C00364B01221A60FFF757FC386108E0FFF7D4
:10222C0053FC02463B69D31A022B01D903239BE1D1
:10223C002D4B1B6803F00203002BF0D02A4B1B68BC
:10224C0023F0F8027B685B69DB00274913430B60C2
:10225C0015E0264B00221A60FFF736FC386108E0C7
:10226C00FFF732FC02463B69D31A022B01D9032338
:10227C007AE11D4B1B6803F00203002BF0D17B6845
:10228C001B6803F00803002B3AD07B689B69002B7A
:10229C0019D0174B01221A60FFF716FC386108E0C1
:1022AC00FFF712FC02463B69D31A022B01D9032318
:1022BC005AE10D4B5B6A03F00203002BF0D00120B6
:1022CC0000F09AFA1CE00A4B00221A60FFF7FCFBA4
:1022DC0038610FE0FFF7F8FB02463B69D31A022B7B
:1022EC0008D9032340E100BF001002400000424225
:1022FC00800442429E4B5B6A03F00203002BE9D13F
:10230C007B681B6803F00403002B00F0A6800023FD
:10231C00FB75974BDB6903F08053002B0DD1944B6D
:10232C00DB69934A43F08053D361914BDB6903F033
:10233C008053BB60BB680123FB758E4B1B6803F499
:10234C008073002B18D18B4B1B688A4A43F4807323
:10235C001360FFF7B9FB386108E0FFF7B5FB0246E5
:10236C003B69D31A642B01D90323FDE0814B1B6815
:10237C0003F48073002BF0D07B68DB68012B06D153
:10238C007B4B1B6A7A4A43F0010313622DE07B6896
:10239C00DB68002B0CD1764B1B6A754A23F00103CA
:1023AC001362734B1B6A724A23F0040313621CE022
:1023BC007B68DB68052B0CD16D4B1B6A6C4A43F0B8
:1023CC00040313626A4B1B6A694A43F001031362EC
:1023DC000BE0674B1B6A664A23F001031362644BE4
:1023EC001B6A634A23F0040313627B68DB68002BCF
:1023FC0015D0FFF769FB38610AE0FFF765FB024671
:10240C003B69D31A41F28832934201D90323ABE0E2
:10241C00574B1B6A03F00203002BEED014E0FFF7BE
:10242C0053FB38610AE0FFF74FFB02463B69D31AB6
:10243C0041F28832934201D9032395E04C4B1B6A3D
:10244C0003F00203002BEED1FB7D012B05D1484B91
:10245C00DB69474A23F08053D3617B68DB69002B2F
:10246C0000F08180424B5B6803F00C03082B61D0B9
:10247C007B68DB69022B46D13F4B00221A60FFF7C9
:10248C0023FB386108E0FFF71FFB02463B69D31AB8
:10249C00022B01D9032367E0354B1B6803F0007353
:1024AC00002BF0D17B681B6AB3F5803F08D1304B11
:1024BC005B6823F400327B689B682D4913434B60A7
:1024CC002B4B5B6823F474127B68196A7B685B6A1C
:1024DC000B43274913434B60274B01221A60FFF72C
:1024EC00F3FA386108E0FFF7EFFA02463B69D31ABA
:1024FC00022B01D9032337E01D4B1B6803F000733B
:10250C00002BF0D02FE01C4B00221A60FFF7DCFAF6
:10251C00386108E0FFF7D8FA02463B69D31A022B60
:10252C0001D9032320E0124B1B6803F00073002B2E
:10253C00F0D118E07B68DB69012B01D1012313E09A
:10254C000B4B5B68FB60FB6803F480327B681B6A97
:10255C009A4206D1FB6803F470127B685B6A9A425C
:10256C0001D0012300E0002318461837BD4680BD7A
:10257C0000100240007000406000424280B584B000
:10258C0000AF786039607B68002B01D10123D0E06B
:10259C006A4B1B6803F007033A689A4210D9674BE1
:1025AC001B6823F0070265493B6813430B60634BC0
:1025BC001B6803F007033A689A4201D00123B8E084
:1025CC007B681B6803F00203002B20D07B681B6820
:1025DC0003F00403002B05D0594B5B68584A43F4B5
:1025EC00E06353607B681B6803F00803002B05D085
:1025FC00534B5B68524A43F460535360504B5B68D7
:10260C0023F0F0027B689B684D4913434B607B6859
:10261C001B6803F00103002B40D07B685B68012B27
:10262C0007D1474B1B6803F40033002B15D1012352
:10263C007FE07B685B68022B07D1414B1B6803F082
:10264C000073002B09D1012373E03D4B1B6803F091
:10265C000203002B01D101236BE0394B5B6823F0A3
:10266C0003027B685B68364913434B60FFF72CFA17
:10267C00F8600AE0FFF728FA0246FB68D31A41F229
:10268C008832934201D9032353E02D4B5B6803F04E
:10269C000C027B685B689B009A42EBD1274B1B6852
:1026AC0003F007033A689A4210D2244B1B6823F0BC
:1026BC00070222493B6813430B60204B1B6803F055
:1026CC0007033A689A4201D0012332E07B681B6809
:1026DC0003F00403002B08D0194B5B6823F4E06271
:1026EC007B68DB68164913434B607B681B6803F0FF
:1026FC000803002B09D0124B5B6823F460527B68F3
:10270C001B69DB000E4913434B6000F021F80246B5
:10271C000B4B5B681B0903F00F030A49CB5C22FAD5
:10272C0003F3094A1360094B1B681846FFF78AF933
:10273C00002318461037BD4680BD00BF0020024064
:10274C0000100240683000084C00002050000020AF
:10275C0080B487B000AF0023FB600023BB60002374
:10276C007B6100237B6000233B611E4B5B68FB603D
:10277C00FB6803F00C03042B02D0082B03D027E0DA
:10278C00194B3B6127E0FB689B0C03F00F03174AC6
:10279C00D35C7B60FB6803F48033002B10D0114BAF
:1027AC005B685B0C03F00103114AD35CBB607B6874
:1027BC000D4A02FB03F2BB68B2FBF3F37B6104E04E
:1027CC007B680C4A02FB03F37B617B693B6102E093
:1027DC00054B3B6100BF3B6918461C37BD4680BCAE
:1027EC00704700BF0010024000127A0078300008D9
:1027FC008830000800093D0080B485B000AF7860D7
:10280C000A4B1B680A4AA2FB03235B0A7A6802FB89
:10281C0003F3FB6000BFFB685A1EFA60002BF9D172
:10282C0000BF00BF1437BD4680BC70474C00002071
:10283C00D34D621080B582B000AF78607B68002BFE
:10284C0001D1012341E07B6893F83D30DBB2002BD2
:10285C0006D17B68002283F83C207868FFF75AF891
:10286C007B68022283F83D207B681A687B680433FE
:10287C001946104600F056FA7B68012283F8462070
:10288C007B68012283F83E207B68012283F83F207D
:10289C007B68012283F840207B68012283F8412069
:1028AC007B68012283F842207B68012283F8432055
:1028BC007B68012283F844207B68012283F8452041
:1028CC007B68012283F83D20002318460837BD465B
:1028DC0080BD000080B485B000AF78607B6893F851
:1028EC003D30DBB2012B01D0012335E07B680222A5
:1028FC0083F83D207B681B68DA687B681B6842F0B4
:10290C000102DA607B681B68164A934209D07B6827
:10291C001B68B3F1804F04D07B681B68124A93424A
:10292C0011D17B681B689B6803F00703FB60FB6895
:10293C00062B10D07B681B681A687B681B6842F0FA
:10294C0001021A6007E07B681B681A687B681B68C9
:10295C0042F001021A60002318461437BD4680BCB1
:10296C00704700BF002C01400004004080B584B0CB
:10297C0000AF78607B681B68DB68FB607B681B685A
:10298C001B69BB60BB6803F00203002B20D0FB6803
:10299C0003F00203002B1BD07B681B686FF0020254
:1029AC001A617B6801221A777B681B689B6903F0AC
:1029BC000303002B03D0786800F098F905E07868E1
:1029CC0000F08BF9786800F09AF97B6800221A778E
:1029DC00BB6803F00403002B20D0FB6803F0040356
:1029EC00002B1BD07B681B686FF004021A617B689C
:1029FC0002221A777B681B689B6903F44073002BD7
:102A0C0003D0786800F072F905E0786800F065F999
:102A1C00786800F074F97B6800221A77BB6803F0C1
:102A2C000803002B20D0FB6803F00803002B1BD0FD
:102A3C007B681B686FF008021A617B6804221A77A6
:102A4C007B681B68DB6903F00303002B03D07868F9
:102A5C0000F04CF905E0786800F03FF9786800F078
:102A6C004EF97B6800221A77BB6803F01003002B29
:102A7C0020D0FB6803F01003002B1BD07B681B6875
:102A8C006FF010021A617B6808221A777B681B684A
:102A9C00DB6903F44073002B03D0786800F026F94F
:102AAC0005E0786800F019F9786800F028F97B687F
:102ABC0000221A77BB6803F00103002B0CD0FB68D3
:102ACC0003F00103002B07D07B681B686FF0010239
:102ADC001A617868FEF7D8FDBB6803F08003002B01
:102AEC000CD0FB6803F08003002B07D07B681B68BD
:102AFC006FF080021A61786800F06FFABB6803F01F
:102B0C004003002B0CD0FB6803F04003002B07D0D4
:102B1C007B681B686FF040021A61786800F0F8F867
:102B2C00BB6803F02003002B0CD0FB6803F02003E0
:102B3C00002B07D07B681B686FF020021A61786845
:102B4C0000F042FA00BF1037BD4680BD80B584B09E
:102B5C0000AF786039600023FB737B6893F83C30DE
:102B6C00012B01D10223B4E07B68012283F83C20C5
:102B7C007B68022283F83D207B681B689B68BB60E6
:102B8C00BB6823F07703BB60BB6823F47F43BB6057
:102B9C007B681B68BA689A603B681B68B3F5005F7A
:102BAC003ED0B3F5005F00F28780B3F5805F00F094
:102BBC008680B3F5805F7FD8702B1AD0702B7BD8B2
:102BCC00602B50D0602B77D8502B3CD0502B73D827
:102BDC00402B58D0402B6FD8302B64D0302B6BD877
:102BEC00202B60D0202B67D8002B5CD0102B5AD018
:102BFC0062E07B6818683B6899683B685A683B6878
:102C0C00DB6800F06AF97B681B689B68BB60BB687B
:102C1C0043F07703BB607B681B68BA689A604FE02F
:102C2C007B6818683B6899683B685A683B68DB6846
:102C3C0000F053F97B681B689A687B681B6842F448
:102C4C0080429A603CE07B6818683B6859683B6836
:102C5C00DB681A4600F0CAF87B681B6850211846DE
:102C6C0000F021F92CE07B6818683B6859683B68D8
:102C7C00DB681A4600F0E8F87B681B686021184690
:102C8C0000F011F91CE07B6818683B6859683B68D8
:102C9C00DB681A4600F0AAF87B681B6840211846CE
:102CAC0000F001F90CE07B681A683B681B68194658
:102CBC00104600F0F8F803E00123FB7300E000BFBE
:102CCC007B68012283F83D207B68002283F83C203E
:102CDC00FB7B18461037BD4680BD80B483B000AF77
:102CEC00786000BF0C37BD4680BC704780B483B0A1
:102CFC0000AF786000BF0C37BD4680BC704780B415
:102D0C0083B000AF786000BF0C37BD4680BC704705
:102D1C0080B483B000AF786000BF0C37BD4680BC78
:102D2C007047000080B485B000AF786039607B6874
:102D3C001B68FB607B682B4A934207D07B68B3F11E
:102D4C00804F03D07B68284A934208D1FB6823F05C
:102D5C007003FB603B685B68FA681343FB607B683D
:102D6C00204A934207D07B68B3F1804F03D07B6835
:102D7C001D4A934208D1FB6823F44073FB603B6807
:102D8C00DB68FA681343FB60FB6823F080023B6846
:102D9C005B691343FB607B68FA681A603B689A684E
:102DAC007B68DA623B681A687B689A627B680D4ABA
:102DBC00934203D13B681A697B681A637B680122D2
:102DCC005A617B681B6903F00103002B05D07B68FB
:102DDC001B6923F001027B681A6100BF1437BD46E2
:102DEC0080BC7047002C01400004004080B487B0C8
:102DFC0000AFF860B9607A60FB681B6A7B61FB68A6
:102E0C001B6A23F00102FB681A62FB689B693B6139
:102E1C003B6923F0F0033B617B681B013A69134368
:102E2C003B617B6923F00A037B617A69BB681343BE
:102E3C007B61FB683A699A61FB687A691A6200BF28
:102E4C001C37BD4680BC704780B487B000AFF860BB
:102E5C00B9607A60FB681B6A7B61FB681B6A23F0B4
:102E6C001002FB681A62FB689B693B613B6923F4A7
:102E7C0070433B617B681B033A6913433B617B697D
:102E8C0023F0A0037B61BB681B017A6913437B6150
:102E9C00FB683A699A61FB687A691A6200BF1C3751
:102EAC00BD4680BC704780B485B000AF7860396097
:102EBC007B689B68FB60FB6823F07003FB603A68DF
:102ECC00FB68134343F00703FB607B68FA689A6066
:102EDC0000BF1437BD4680BC704780B487B000AFCC
:102EEC00F860B9607A603B60FB689B687B617B69CA
:102EFC0023F47F437B613B681A027B681A43BB68EF
:102F0C0013437A6913437B61FB687A699A6000BF4B
:102F1C001C37BD4680BC704780B485B000AF78606C
:102F2C0039607B6893F83C30012B01D1022341E0DE
:102F3C007B68012283F83C207B68022283F83D20C9
:102F4C007B681B685B68FB607B681B689B68BB606D
:102F5C00FB6823F07003FB603B681B68FA68134343
:102F6C00FB607B681B68FA685A607B681B68144AB4
:102F7C00934209D07B681B68B3F1804F04D07B6807
:102F8C001B68104A93420CD1BB6823F08003BB60D2
:102F9C003B685B68BA681343BB607B681B68BA68A4
:102FAC009A607B68012283F83D207B68002283F8BD
:102FBC003C20002318461437BD4680BC704700BF28
:102FCC00002C01400004004080B483B000AF786056
:102FDC0000BF0C37BD4680BC704780B483B000AFD7
:102FEC00786000BF0C37BD4680BC704770B50026BA
:102FFC000C4D0D4C641BA410A64209D100F022F814
:10300C0000260A4D0A4C641BA410A64205D170BDC3
:10301C0055F8043B98470136EEE755F8043B9847C2
:10302C000136F2E78C3000088C3000088C30000838
:10303C009030000803460244934200D1704703F8D5
:10304C00011BF9E7F8B500BFF8BC08BC9E467047F9
:0C305C00F8B500BFF8BC08BC9E467047E9
:103068000000000000000000010203040607080930
:1030780002030405060708090A0B0C0D0E0F1010B1
:043088000102000041
:04308C003101000806
:043090000D01000826
:10309400010000000000000000000000010000002A
:1030A400000000000000000001000000000000001B
:1030B400000000000100000000000000000000000B
:1030C40001000000010000000500000002000000F3
:1030D40003000000040000000A00000000127A004F
:0830E4001000000001000000D3
:04000005080019D9FD
:00000001FF
